{
  "_format": "hh3-artifact-1",
  "contractName": "CrossWireContract",
  "sourceName": "contracts/CrossWireContract.sol",
  "abi": [
    {
      "inputs": [
        {
          "internalType": "address",
          "name": "_usdcToken",
          "type": "address"
        }
      ],
      "stateMutability": "nonpayable",
      "type": "constructor"
    },
    {
      "anonymous": false,
      "inputs": [
        {
          "indexed": true,
          "internalType": "address",
          "name": "sender",
          "type": "address"
        },
        {
          "indexed": true,
          "internalType": "address",
          "name": "recipient",
          "type": "address"
        },
        {
          "indexed": false,
          "internalType": "uint256",
          "name": "amount",
          "type": "uint256"
        }
      ],
      "name": "RemittanceSent",
      "type": "event"
    },
    {
      "inputs": [
        {
          "internalType": "address",
          "name": "recipient",
          "type": "address"
        },
        {
          "internalType": "uint256",
          "name": "amount",
          "type": "uint256"
        }
      ],
      "name": "sendRemittance",
      "outputs": [],
      "stateMutability": "nonpayable",
      "type": "function"
    },
    {
      "inputs": [],
      "name": "usdcToken",
      "outputs": [
        {
          "internalType": "contract IERC20",
          "name": "",
          "type": "address"
        }
      ],
      "stateMutability": "view",
      "type": "function"
    }
  ],
  "bytecode": "0x608060405234801561000f575f80fd5b506040516102de3803806102de83398101604081905261002e91610052565b5f80546001600160a01b0319166001600160a01b039290921691909117905561007f565b5f60208284031215610062575f80fd5b81516001600160a01b0381168114610078575f80fd5b9392505050565b6102528061008c5f395ff3fe608060405234801561000f575f80fd5b5060043610610034575f3560e01c806311eac855146100385780637b8e0eb614610066575b5f80fd5b5f5461004a906001600160a01b031681565b6040516001600160a01b03909116815260200160405180910390f35b6100796100743660046101c1565b61007b565b005b5f81116100c45760405162461bcd60e51b81526020600482015260126024820152710416d6f756e74206d757374206265203e20360741b60448201526064015b60405180910390fd5b5f546040516323b872dd60e01b81523360048201526001600160a01b03848116602483015260448201849052909116906323b872dd906064016020604051808303815f875af1158015610119573d5f803e3d5ffd5b505050506040513d601f19601f8201168201806040525081019061013d91906101f6565b61017d5760405162461bcd60e51b815260206004820152601160248201527014995b5a5d1d185b98d94819985a5b1959607a1b60448201526064016100bb565b6040518181526001600160a01b0383169033907f4196c0aca93344393f34438706ace0012cdb018ded26eaa64bf5ab0abfce08d69060200160405180910390a35050565b5f80604083850312156101d2575f80fd5b82356001600160a01b03811681146101e8575f80fd5b946020939093013593505050565b5f60208284031215610206575f80fd5b81518015158114610215575f80fd5b939250505056fea26469706673582212208ffdec5e13136a6f55c2979d26d88a795147b1769766d318a60b52434c4140e264736f6c63430008180033",
  "linkReferences": {},
  "deployedLinkReferences": {},
  "immutableReferences": {},
  "inputSourceName": "project/contracts/CrossWireContract.sol",
  "buildInfoId": "solc-0_8_24-222ff3637185df4aabe3e95b22ac56b299d4e247"
}